CV01127251900014500011920835420210413200417220210414C2000000600000000000116600000058834000550209XXXXXX1253060879804758600600000007500000000001450000000735523700029400001095005264457      0010030000000099200000000174000000001240000000002100000000000000000002170000000713802000119208354                  BRABW067631                                           
CV02599891600010300011921017720210413200843220210414C2000001610000000000312700000157873000544731XXXXXX8752061079805236300600000016100000000003120000001578800100027000000646989084479      0010030000000266000000000467000000002660000000004600000000000000000004650000001532302000119210177                  BRABW067BBE                                           
CV04034709100015000011917034620210413185157220210414C2000001000000000000194600000098054000550209XXXXXX4658021279792078700200000008333000000001620000000817103300303600130057938464801      0010030000000165400000000292000000001370000000002400000000000000000000820000000806402000119170346                  BRABW0DBCAB                                           
CV02654208700011200011874406820210413100910220210414C2000000360000000000069800000035302000485464XXXXXX9911030379689637500300000012000000000002320000001176800100856100000001872902363      0020010000000059400000000104000000001980000000003400000000000000000001730000001159502000118744068                  BRABW09E4B8                                           
CV03942788000011200012512110920210414180812020210514C2000000220000000000042700000021573000544731XXXXXX6567010379929488200100000007334000000001430000000719107700000100083794999081372      0010030000000036300000000064000000001210000000002200000000000000000000000000000000002000125121109                  BRABW0A5134                                           
CV02917072900019800011953047620210414135126020210812C2000002450000000000635100000238649000498453XXXXXX7372041079882756500400000024500000000006350000002386507700000100015524680354509      0020010000000564000000000711000000005640000000007100000000000000000000000000000000002000119530476                  BRABW0B1FB5                                           
CV02976904800014000011907745620210413170441220210414C2000004165000000001012400000406376000230744XXXXXX2400121279767139601200000034708000000008430000003386510400210600000700480533607      0010030000000891600000001208000000007430000000010000000000000000000019620000003190302000119077456                  BRABW0936D8                                           
CV02278709400012300011878017520210413105756220210414C2000000665000000000133600000065164000410863XXXXXX9469030379697117300300000022166000000004450000002172100100232100001076329575778      0020010000000114300000000193000000003810000000006400000000000000000003190000002140202000118780175                  BRABW09EC1B                                           
CV03099760300017000012502115320210414162619020211110C2000000150000000000038000000014620000545368XXXXXX6462071279908748800700000001250000000000310000000121934100687300000461427010361      0010030000000033600000000044000000000280000000000300000000000000000000000000000000002000125021153                  BRABW0DA3F9                                           
CV02993317800017700011966440420210414163418020211011C2000000520000000000100900000050991000530994XXXXXX9043060679910008600600000008666000000001680000000849800100579900000229636021951      0010030000000085800000000151000000001430000000002500000000000000000000000000000000002000119664404                  BRABW0A4BD3                                          
CV03099760300017000012502115320210414162619020220208C2000000150000000000038000000014620000545368XXXXXX6462101279908748801000000001250000000000310000000121934100687300000461427010361      0010030000000033600000000044000000000280000000000300000000000000000000000000000000002000125021153                  BRABW0DA3F9                                           